:0602F00054696D653A003F
:0402F60002220000E0
:100201001202B97BFF7A0279F07D017F011202307F
:10021100750C03AB23AA227D067F011202717FE8D0
:0F0221007E031202A40523E52370E5052280E188
:0602CD00C2A58F80D2A73C
:0802D3007F027EEFDEFEDFFC7E
:0102DB002200
:0A02DC00C2A61202CDC2A70202D38F
:10025300CFCDCFCECCCE1200427C007D0A1200421D
:04026300ED2430FF57
:0A026700D2A61202CDC2A70202D3F4
:10028E00AE07BE0104ED148006BE0209ED243F4404
:06029E0080FF1202DC22C9
:1002B9007F381202DC7F0C1202DC7F061202DC7F1F
:0402C900010202DC50
:0A02E600AC0312028EAF040202679F
:060230008B088A09890A0F
:1002360012028EE4FDAB08AA09A90A8D8275830015
:0C024600120003FF60061202670D80E941
:010252002289
:0C01CE007F0AEA24FFFDE434FFFC7E0001
:0801DA008E0D8F0E8C0F8D10AD
:1001E2007F017E00E4FBEBC39510E50F6480F87499
:0E01F2008098500AAC0DAD0E1200300B80E864
:0102000022DB
:040271008A0A8B0B5F
:1002750012028EAA0CEAD39400400D1201CEAC0AEC
:08028500AD0B1202531A80EDCB
:01028D00224E
:1001230012028EC3EA64809480400B7F2B12026715
:100133008A168B17800E7F2D120267C3E49BF51777
:10014300E49AF516AA15EAD39400400D1201CEAC39
:0901530016AD171202531A80EDDB
:01015C002280
:04015D008A1A8B1B54
:1001610012028EAA1CEAD3940040297F101201D0FA
:10017100AC1AAD1BCFCDCFCECCCE120042EF540F77
:10018100FEC3940AEE5004243080022437FF120289
:04019100671A80D198
:010195002247
:040196008A1F8B2011
:10019A0012028EAA21EAD394004028EA24FFFDE441
:1001AA0034FFFC7F027E001201DAAC1FAD20CFCDF6
:1001BA00CFCECCCE120042EF54012430FF12026798
:0301CA001A80D2C6
:0101CD00220F
:1002A400EF1FAC0670011E4C600A7D027CC7DCFEA9
:0402B400DDFC80EC01
:0102B8002223
:0300000002009764
:0C009700787FE4F6D8FD7581230200DEBE
:10000300BB010CE58229F582E5833AF583E02250B2
:1000130006E92582F8E622BBFE06E92582F8E222FC
:0D002300E58229F582E5833AF583E4932216
:10003000EF8DF0A4A8F0CF8CF0A428CE8DF0A42EE4
:02004000FE229E
:10004200BC000BBE0029EF8DF084FFADF022E4CCA2
:10005200F875F008EF2FFFEE33FEEC33FCEE9DEC6B
:10006200984005FCEE9DFE0FD5F0E9E4CEFD22EDB1
:10007200F8F5F0EE8420D21CFEADF075F008EF2FFB
:10008200FFED33FD4007985006D5F0F222C398FDEC
:050092000FD5F0EA2289
:1000A300020201E493A3F8E493A34003F68001F270
:1000B30008DFF48029E493A3F85407240CC8C3335E
:1000C300C4540F4420C8834004F456800146F6DF2D
:1000D300E4800B01020408102040809002F6E47EC5
:1000E300019360BCA3FF543F30E509541FFEE49322
:1000F300A360010ECF54C025E060A840B8E493A3E9
:10010300FAE493A3F8E493A3C8C582C8CAC583CA13
:10011300F0A3C8C582C8CAC583CADFE9DEE780BECB
:0102FA000003
:00000001FF
